:100000000C94C4000C94E1000C94E1000C94E10009
:100010000C94E1000C94E1000C94E1000C94E100DC
:100020000C94E1000C94E1000C94E1000C94E100CC
:100030000C94E1000C94E1000C94E1000C94E100BC
:100040000C94E1000C94E1000C94E1000C94E100AC
:100050000C94E1000C94E1000C94E1000C94E1009C
:100060000C94E1000C94E10005A84CCDB2D44EB93B
:100070003836A9020C50B9918688083CA6AAAA2A4B
:10008000BE000000803F6E616E00696E6600004039
:100090007A10F35A00A0724E18090010A5D4E80097
:1000A00000E87648170000E40B54020000CA9A3BAF
:1000B000000000E1F5050000809698000000404235
:1000C0000F000000A08601000000102700000000C3
:1000D000E803000000006400000000000A000000C7
:1000E00000000100000000002C76D888DC674F0873
:1000F00023DFC1DFAE59E1B1B796E5E3E453C63A79
:10010000E651997696E8E6C28426EB898C9B62EDEF
:10011000407C6FFCEFBC9C9F40F2BAA56FA5F490A9
:10012000055A2AF75C936B6CF9676DC11BFCE0E420
:100130000D47FEF520E6B500D0ED902E0300943576
:1001400077050080841E080000204E0A000000C8C9
:100150000C333333330F986E12831141EF8D21141A
:10016000893BE65516CFFEE6DB18D1844B381BF7EA
:100170007C1D901DA4BBE424203284725E22810089
:10018000C9F124ECA1E53D2711241FBECFEFD8E033
:10019000DEBFCDBF12E0A0E0B1E0EEECF0E302C0C4
:1001A00005900D92A030B107D9F722E0A0E0B2E0AF
:1001B00001C01D92AA30B207E1F70E941B0B0C94FC
:1001C00065180C9400004F925F926F927F928F920D
:1001D0009F92AF92BF92CF92DF92EF92FF920F93D6
:1001E0001F93CF93DF93CDB7DEB76C970FB6F8941C
:1001F000DEBF0FBECDBF6D837E838F83988729833B
:100200003A834B835C83ED8AFE8A0F8B188F4FA451
:1002100058A869A87AA877FA709477F870942BADEB
:100220003CAD4DAD5EADCA01B9010E941B0F2396D6
:100230002CAD3DAD4EAD5FAD23970E941B0F6D877A
:100240007E878F87988B9B01AC01C301B2010E940E
:100250002F112B013C016D817E818F8198850E9439
:100260009C119B01AC01C301B2010E942F112B0113
:100270003C0123962CAD3DAD4EAD5FAD23976FA5F0
:1002800078A989A99AA90E942F11698B7A8B8B8BE7
:100290009C8B29813A814B815C81CA01B9010E9402
:1002A0001B0F69877A878B879C879B01AC016D81C7
:1002B0007E818F8198850E941A0F0E949C119B015C
:1002C000AC0169897A898B899C890E942F119B01D5
:1002D000AC01C301B2010E941A0F698B7A8B8B8B20
:1002E0009C8B29813A814B815C816D817E818F81DC
:1002F00098850E941A0F69837A838B839C830E945E
:100300009C119B01AC010E941B0F9B01AC01239629
:100310006CAD7DAD8EAD9FAD23970E942F11698F7F
:100320007A8F8B8F9C8FA6019501C601B5010E9423
:100330002F112FA938AD49AD5AAD0E942F114B0195
:100340005C01A8019701C801B7010E942F112BA9D8
:100350003CA94DA95EA90E942F112B013C01698186
:100360007A818B819C810E948C0F9B01AC01C3011F
:10037000B2010E942F119B01AC01C501B4010E9482
:100380001B0F9B01AC01698D7A8D8B8D9C8D0E941A
:100390002F119B01AC0169897A898B899C890E9404
:1003A0001A0F6B017C012D813E814F815885CA0156
:1003B000B9010E941B0F29853A854B855C850E94F7
:1003C0001A0F0E948C0F9B01AC0123966CAD7DAD82
:1003D0008EAD9FAD23970E942F119B01AC016D85BF
:1003E0007E858F8598890E941A0F9B01AC016BA9AD
:1003F0007CA98DA99EA90E942F119B01AC01C70168
:10040000B6010E94910F6C960FB6F894DEBF0FBE36
:10041000CDBFDF91CF911F910F91FF90EF90DF90B3
:10042000CF90BF90AF909F908F907F906F905F9094
:100430004F9008954F925F926F927F928F929F920A
:10044000AF92BF92CF92DF92EF92FF920F931F93E2
:10045000CF93DF93CDB7DEB764970FB6F894DEBFC6
:100460000FBECDBF2B013C012D833E834F835887A8
:10047000E982FA820B831C830E941A0F6D877E87A4
:100480008F87988B0E949C119B01AC010E941B0FCF
:10049000698B7A8B8B8B9C8BA8019701C801B70164
:1004A0000E942F112BA53CA54DA55EA50E942F11E2
:1004B00069877A878B879C872FA938AD49AD5AAD5C
:1004C0006BA97CA98DA99EA90E941B0F69837A83C1
:1004D0008B839C839B01AC0169857A858B859C8588
:1004E0000E942F1169877A878B879C872FA138A557
:1004F00049A55AA569817A818B819C810E942F111F
:1005000069837A838B839C83C301B2010E948C0F21
:100510009B01AC0169817A818B819C810E942F11A2
:100520009B01AC0169857A858B859C850E941B0F98
:1005300069837A838B839C83A6019501C601B501EB
:100540000E942F112FA538A949A95AA90E942F113D
:100550009B01AC016FA978AD89AD9AAD0E942F11B6
:100560004B015C016D857E858F8598890E948C0F7B
:100570009B01AC01C501B4010E942F119B01AC018C
:1005800069817A818B819C810E941B0F9B01AC0148
:1005900069897A898B899C890E942F116B017C0162
:1005A0002BA93CA94DA95EA9CA01B9010E941B0F44
:1005B0009B01AC016FA978AD89AD9AAD0E941B0F6C
:1005C0004B015C01A3019201C301B2010E941B0F08
:1005D0002B013C012D813E814F815885CA01B90113
:1005E0000E941B0F9B01AC01C301B2010E941A0FB4
:1005F0000E948C0F9B01AC016FA978AD89AD9AADBB
:100600000E942F119B01AC01C501B4010E941A0F79
:100610009B01AC016FA578A989A99AA90E942F1105
:100620009B01AC01C701B6010E94910F64960FB601
:10063000F894DEBF0FBECDBFDF91CF911F910F9118
:10064000FF90EF90DF90CF90BF90AF909F908F90F2
:100650007F906F905F904F9008952F923F924F92AE
:100660005F926F927F928F929F92AF92BF92CF9242
:10067000DF92EF92FF920F931F93CF93DF93CDB74B
:10068000DEB72A970FB6F894DEBF0FBECDBFCA0102
:10069000B901E6E0F1E054844584368427849084EF
:1006A000818472846384A481B581268129873781FE
:1006B0003A872081298331813A8322812B833381B8
:1006C0003C8320892D8331893E8322892F8333897E
:1006D0003887A4A4B5A4C6A4D7A4E0A0F1A002A121
:1006E00013A120A531A542A553A52F923F924F9269
:1006F0005F926F927F928F929F92EA85EF93E98546
:10070000EF93BF93AF93EC81EF93EB81EF93EA818B
:10071000EF93E981EF93E885EF93EF81EF93EE811B
:10072000EF93ED81EF930E94E3000FB6F894DEBFE4
:100730000FBECDBF2A960FB6F894DEBF0FBECDBF59
:10074000DF91CF911F910F91FF90EF90DF90CF90AD
:10075000BF90AF909F908F907F906F905F904F90E1
:100760003F902F9008952F923F924F925F926F92F9
:100770007F928F929F92AF92BF92CF92DF92EF9231
:10078000FF920F931F93CF93DF93CDB7DEB72A97D6
:100790000FB6F894DEBF0FBECDBFE6E0F1E05484A3
:1007A0004584368427849084818472846384A48100
:1007B000B5818681898787818A87808189838181C4
:1007C0008A8382818B8383818C8380898D838189D5
:1007D0008E8382898F8383898887A4A4B5A4C6A4C5
:1007E000D7A4E0A0F1A002A113A1648D758D868D20
:1007F000978D2F923F924F925F926F927F928F923E
:100800009F92EA85EF93E985EF93BF93AF93EC81D5
:10081000EF93EB81EF93EA81EF93E981EF93E88522
:10082000EF93EF81EF93EE81EF93ED81EF930E94D1
:100830001A020FB6F894DEBF0FBECDBF2A960FB6D0
:10084000F894DEBF0FBECDBFDF91CF911F910F9106
:10085000FF90EF90DF90CF90BF90AF909F908F90E0
:100860007F906F905F904F903F902F9008954F92A0
:100870005F926F927F928F929F92AF92BF92CF9230
:10088000DF92EF92FF92CF93DF93CDB7DEB76497FD
:100890000FB6F894DEBF0FBECDBF6DA57EA58FA5A8
:1008A00098A929A93AA94BA95CA929873A874B8716
:1008B0005C870E941B0F698B7A8B8B8B9C8B20E053
:1008C00030E040E05FE30E942F116B017C018DA1BD
:1008D0009EA1AFA1B8A589839A83AB83BC839C01F9
:1008E000AD01BC01CD010E942F119B01AC01C701DC
:1008F000B6010E942F116B017C0129964CAC5DACB6
:100900006EAC7FAC2997A3019201C301B2010E9492
:100910002F119B01AC01C701B6010E942F116D87F9
:100920007E878F87988B20E030E040E05FE3698529
:100930007A858B859C850E942F116B017C0189A48F
:100940009AA4ABA4BCA4A5019401C501B4010E9462
:100950002F119B01AC01C701B6010E942F116D83BD
:100960007E838F8398876596CCACDDACEEACFFAC14
:100970006597A7019601C701B6010E942F119B013F
:10098000AC016D817E818F8198850E942F119B0122
:10099000AC016D857E858F8598890E941B0F6D83C4
:1009A0007E838F83988729813A814B815C81698519
:1009B0007A858B859C850E942F119B01AC01C50116
:1009C000B4010E942F119B01AC01C301B2010E942E
:1009D0002F119B01AC01C701B6010E942F116B01C1
:1009E0007C0125962CAD3DAD4EAD5FAD25972D8795
:1009F0003E874F87588B61964CAC5DAC6EAC7FAC3C
:100A00006197A30192016D857E858F8598890E94EB
:100A10001A0F0E948C0F9B01AC01C701B6010E9406
:100A20002F119B01AC016D817E818F8198850E9481
:100A30001B0F6D837E838F83988769897A898B8961
:100A40009C899058CDA8DEA8EFA8F8ACA701960124
:100A50000E942F119B01AC0169817A818B819C815D
:100A60000E942F1169837A838B839C836D857E8599
:100A70008F8598890E948C0F9B01AC0169817A81D6
:100A80008B819C810E942F1169837A838B839C8345
:100A9000A701960169857A858B859C850E942F1117
:100AA0009B01AC01C501B4010E942F116B017C01B7
:100AB000C301B2010E948C0F9B01AC01C701B601BA
:100AC0000E942F119B01AC0169817A818B819C81ED
:100AD0000E941A0F2B013C019B01AC016D817E81AC
:100AE0008F8198850E941B0F6B017C0120E030E014
:100AF000A9010E94870F882354F42D813E814F81E4
:100B00005885C301B2010E941A0F6B017C01C70115
:100B1000B60164960FB6F894DEBF0FBECDBFDF916D
:100B2000CF91FF90EF90DF90CF90BF90AF909F90CC
:100B30008F907F906F905F904F9008952F923F928B
:100B40004F925F926F927F928F929F92AF92BF92DD
:100B5000CF92DF92EF92FF920F931F93CF93DF9389
:100B6000CDB7DEB7A6970FB6F894DEBF0FBECDBFE8
:100B70006D877E878F87988B2D833E834F83588721
:100B80001801FEA2EDA2F8014080518062807380BE
:100B9000F70180809180A280B38085017401A30158
:100BA00092016D817E818F8198850E942D036D8FCA
:100BB0007E8F8F8F98A320E030E040E05FE36D856B
:100BC0007E858F8598890E942F1169837A838B8314
:100BD0009C839B01AC016D817E818F8198850E94F1
:100BE0001B0F69877A878B879C8729813A814B8184
:100BF0005C81C501B4010E942F119B01AC01C301AE
:100C0000B2010E941B0F6D8B7E8B8F8B988F298179
:100C10003A814B815C816D8D7E8D8F8D98A10E9474
:100C20002F119B01AC01C501B4010E941B0F698FFC
:100C30007A8F8B8F9C8F7B018C012D893E894F8908
:100C4000588D69857A858B859C850E942D036D8BD7
:100C50007E8B8F8B988FA801970169817A818B8118
:100C60009C810E942F119B01AC01C301B2010E9423
:100C70001B0F698B7A8B8B8B9C8B2D893E894F89BF
:100C8000588D69817A818B819C810E942F119B01F3
:100C9000AC01C501B4010E941B0F69837A838B8369
:100CA0009C837B018C0129893A894B895C89698500
:100CB0007A858B859C850E942D0369877A878B872F
:100CC0009C872D853E854F8558896D817E818F81DA
:100CD00098850E941B0F698B7A8B8B8B9C8BA8014C
:100CE00097016D857E858F8598890E942F119B01C4
:100CF000AC01C301B2010E941B0F69A37AA38BA3AD
:100D00009CA329853A854B855C856D857E858F857D
:100D100098890E942F119B01AC01C501B4010E946A
:100D20001B0F6D837E838F8398877B018C0129A1A4
:100D30003AA14BA15CA169897A898B899C890E941F
:100D40002D03698B7A8B8B8B9C8B2BEA3AEA4AE2D8
:100D50005EE36D857E858F8598890E942F116B01DA
:100D60007C01298D3A8D4B8D5C8DCA01B9010E94A1
:100D70001B0F9B01AC01C501B4010E941B0F4B016D
:100D80005C0129813A814B815C81CA01B9010E94D1
:100D90001B0F9B01AC01C501B4010E941B0F9B01FD
:100DA000AC016D817E818F8198850E941B0F9B0114
:100DB000AC01C701B6010E942F119B01AC01C30118
:100DC000B2010E941B0FF1016083718382839383C0
:100DD0009B01AC010E94A411811149C0EDA1FEA1AB
:100DE00080809180A280B3802D893E894F89588D63
:100DF000CA01B9010E941B0F9B01AC016D8D7E8D54
:100E00008F8D98A10E941B0F2B013C0129853A85EB
:100E10004B855C85CA01B9010E941B0F9B01AC0187
:100E2000C301B2010E941B0F9B01AC0169897A8941
:100E30008B899C890E941B0F9B01AC01C701B601E5
:100E40000E942F119B01AC01C501B4010E941B0F30
:100E5000EDA1FEA160837183828393839B01AC012A
:100E60000E94A411882331F08FEF9FEF05C08FEF10
:100E70009FEF02C080E090E0A6960FB6F894DEBF28
:100E80000FBECDBFDF91CF911F910F91FF90EF90DB
:100E9000DF90CF90BF90AF909F908F907F906F909A
:100EA0005F904F903F902F9008952F923F924F92D6
:100EB0005F926F927F928F929F92AF92BF92CF92EA
:100EC000DF92EF92FF920F931F93CF93DF93CDB7F3
:100ED000DEB7A6970FB6F894DEBF0FBECDBF6D8705
:100EE0007E878F87988B2D833E834F835887180189
:100EF000FEA2EDA2F8014080518062807380F7016C
:100F000080809180A280B38085017401A301920149
:100F10006D817E818F8198850E94B3036D8F7E8F56
:100F20008F8F98A320E030E040E05FE36D857E8501
:100F30008F8598890E942F1169837A838B839C8384
:100F40009B01AC016D817E818F8198850E941B0F72
:100F500069877A878B879C8729813A814B815C815D
:100F6000C501B4010E942F119B01AC01C301B20164
:100F70000E941B0F6D8B7E8B8F8B988F29813A81FE
:100F80004B815C816D8D7E8D8F8D98A10E942F117C
:100F90009B01AC01C501B4010E941B0F698F7A8FC0
:100FA0008B8F9C8F7B018C012D893E894F89588DB9
:100FB00069857A858B859C850E94B3036D8B7E8BBA
:100FC0008F8B988FA801970169817A818B819C8191
:100FD0000E942F119B01AC01C301B2010E941B0FA3
:100FE000698B7A8B8B8B9C8B2D893E894F89588D91
:100FF00069817A818B819C810E942F119B01AC01B8
:10100000C501B4010E941B0F69837A838B839C8383
:101010007B018C0129893A894B895C8969857A85AC
:101020008B859C850E94B30369877A878B879C8711
:101030002D853E854F8558896D817E818F8198856C
:101040000E941B0F698B7A8B8B8B9C8BA80197015D
:101050006D857E858F8598890E942F119B01AC013B
:10106000C301B2010E941B0F69A37AA38BA39CA3A7
:1010700029853A854B855C856D857E858F85988928
:101080000E942F119B01AC01C501B4010E941B0FEE
:101090006D837E838F8398877B018C0129A13AA180
:1010A0004BA15CA169897A898B899C890E94B303D1
:1010B000698B7A8B8B8B9C8B2BEA3AEA4AE25EE354
:1010C0006D857E858F8598890E942F116B017C012B
:1010D000298D3A8D4B8D5C8DCA01B9010E941B0F81
:1010E0009B01AC01C501B4010E941B0F4B015C01C7
:1010F00029813A814B815C81CA01B9010E941B0F91
:101100009B01AC01C501B4010E941B0F9B01AC0106
:101110006D817E818F8198850E941B0F9B01AC01A0
:10112000C701B6010E942F119B01AC01C301B2019E
:101130000E941B0FF10160837183828393839B0163
:10114000AC010E94A411811149C0EDA1FEA18080D3
:101150009180A280B3802D893E894F89588DCA0124
:10116000B9010E941B0F9B01AC016D8D7E8D8F8D8F
:1011700098A10E941B0F2B013C0129853A854B85C4
:101180005C85CA01B9010E941B0F9B01AC01C30120
:10119000B2010E941B0F9B01AC0169897A898B897E
:1011A0009C890E941B0F9B01AC01C701B6010E94E4
:1011B0002F119B01AC01C501B4010E941B0FEDA1D1
:1011C000FEA160837183828393839B01AC010E94A3
:1011D000A411882331F08FEF9FEF05C08FEF9FEFB1
:1011E00002C080E090E0A6960FB6F894DEBF0FBE76
:1011F000CDBFDF91CF911F910F91FF90EF90DF90C6
:10120000CF90BF90AF909F908F907F906F905F90A6
:101210004F903F902F9008959B01285E3F4F1216EC
:10122000130614F069EE7FEF9B01285E3F4F2033D9
:10123000310514F067E170E09C01235F3F4F121607
:10124000130614F084EF9FEF9C01235F3F4F2B3177
:10125000310514F08CE090E008952F923F924F9268
:101260005F926F927F928F929F92AF92CF92DF9216
:10127000EF92FF920F931F93CF93DF93CDB7DEB71B
:101280002C970FB6F894DEBF0FBECDBF8C014B017B
:1012900066962EAC3FAC669720E24BE150E060E3EF
:1012A00070E0C1010E94E60C48A059A06AA07BA092
:1012B00020E030E040EE50E4C301B2010E942F1163
:1012C00069837A838B839C83CCACDDACEEACFFACC2
:1012D000C701B6010E949C119B01AC0169817A8112
:1012E0008B819C810E942F110E94031069837A8355
:1012F0008B839C8329813A81F4013183208320E010
:1013000030E040EE50ECC301B2010E942F112B01DE
:101310003C01C701B6010E948C0F9B01AC01C301C7
:10132000B2010E942F110E94031069877A878B8770
:101330009C8729853A85F401338322834CA05DA0E4
:101340006EA07FA020E030E040EE50E4C301B20187
:101350000E942F116D837E838F8398872C96CCAC4F
:10136000DDACEEACFFAC2C97C701B6010E949C111E
:101370009B01AC016D817E818F8198850E942F1128
:101380006D837E838F839887E981FA81BF01FF0F88
:10139000880B990B0E943B102D813E814F8158850F
:1013A0000E941B0F0E940310F4017583648320E0E8
:1013B00030E040EE50ECC301B2010E942F112B012E
:1013C0003C01C701B6010E948C0F9B01AC01C30117
:1013D000B2010E942F116B017C0129853A85B90168
:1013E000330F880B990B0E943B10A70196010E94B6
:1013F0001B0F0E940310F401778366836081718163
:10140000828193810E940C09F4016083718382833D
:10141000938364817581868197810E940C09F40110
:1014200064837583868397832801F1E04F1A5108FE
:10143000C2012AC09C0121503109FC013196EE0FF6
:10144000FF1FEE0FFF1FE80DF91D40815181FC01C8
:101450003296EE0FFF1FEE0FFF1FE80DF91D5183AF
:101460004083F901EE0FFF1FEE0FFF1FE80DF91D7E
:1014700042855385880F991F880F991FF401E80F43
:10148000F91F53874287C901181619069CF280E09C
:1014900090E03CC03C012FEF621A720AF301EE0F9C
:1014A000FF1FEE0FFF1FE80DF91DC284D384FC015E
:1014B000EE0FFF1FEE0FFF1FE80DF91D02851385CC
:1014C000D194C194D108FC013396EE0FFF1FEE0FAB
:1014D000FF1FE80DF91DE080F180119501951109BC
:1014E000FC013296EE0FFF1FEE0FFF1FE80DF91DF6
:1014F000208131810F2EF0E6AF2EF02D4BE150E030
:1015000060E370E0C1010E94040DC30184159505DC
:101510000CF2F401C280D380D194C194D108E08050
:10152000F1800F2EFFE2AF2EF02D00E010E020E062
:1015300030E04BE150E060E370E0C1010E94040D37
:10154000F401C680D78002811381D194C194D1085F
:10155000E480F580119501951109208131814BE1DD
:1015600050E060E370E0C1010E94040D68A579A518
:101570008AA59BA5F401028113810E940310119595
:1015800001951109F401208131810F2EFAE2CF2E4D
:10159000F02D7B014BE150E060E370E0C1010E945F
:1015A000A10E6CA57DA58EA59FA5F40106811781CE
:1015B0000E940310119501951109F40124813581D0
:1015C0007B014BE150E060E370E0C1010E94A10E9D
:1015D000F4018481958191878087868197819387A3
:1015E00082870F2EF3E2CF2EF02DEE24E394F12C20
:1015F00000E010E020E030E04BE150E060E370E01C
:10160000C1010E94A10E2C960FB6F894DEBF0FBE4A
:10161000CDBFDF91CF911F910F91FF90EF90DF90A1
:10162000CF90AF909F908F907F906F905F904F90F2
:101630003F902F900895CF93DF93CDB7DEB7C45678
:10164000D1090FB6F894DEBF0FBECDBF80E090E0A9
:101650000E94050CFE01319684E3DF011D928A95FC
:10166000E9F780E090E0A0E8BFE389839A83AB8349
:10167000BC838D839E83AF83B88789879A87AB8726
:10168000BC878D879E87AF87B88B8DEC9CECACE1D7
:10169000B1E4898B9A8BAB8BBC8B8BED9FE0A9EC73
:1016A000BFE38D8F9E8FAF8FB8A38BED9FE0A9E432
:1016B000B0E489A79AA7ABA7BCA72DB73EB7245320
:1016C00031090FB6F8943EBF0FBE2DBFADB7BEB700
:1016D000119684E301900D928A95E1F70E943704F8
:1016E0000FB6F894DEBF0FBECDBF698F7A8F8B8F98
:1016F0009C8F60E370E08BE190E00E94180CA82EB4
:10170000B92EC12CD12C9E012F5D3F4F79018E0146
:10171000035E1F4F20E030E0A9016DEC7CEC8CEC07
:101720009DE30E949E05892B71F08EE891E09F93C6
:101730008F938CEA91E09F938F930E94F1170F9003
:101740000F900F900F90CE018D967C018E01075D5A
:101750001F4F20E030E0A9016DEC7CEC8CEC9DE3A8
:101760000E945507892B71F08EE891E09F938F932B
:101770008CEA91E09F938F930E94F1170F900F9046
:101780000F900F909AE0C916D1041CF4AFEFCA1A5B
:10179000DA0ABF92AF922DB73EB7245331090FB684
:1017A000F8943EBF0FBE2DBFADB7BEB7119684E310
:1017B000FE01319601900D928A95E1F7BE016B5CB6
:1017C0007F4FC6010E942D090FB6F894DEBF0FBEF1
:1017D000CDBF4BE150E060E370E08A2D9B2D0E946D
:1017E000740C91CFCF93C82F8A3029F460E070E059
:1017F0008DE00E94F20B8091C00085FFFCCFC0936A
:10180000C60080E090E0CF9108959093C50080934A
:10181000C4001092C00088E98093C1008EE08093DC
:10182000C2008AE391E09093070280930602089534
:10183000AF92BF92CF92DF92EF92FF920F931F93DE
:10184000CF93DF937C016B01880F991F0E94A6152F
:101850005C01892BC1F51F9288E08F938FEB91E09B
:101860009F938F938BEC91E09F938F930E94F1173E
:101870000F900F900F900F900F900F90FFCF8E0151
:10188000000F111F0A0D1B1DC60101960E94A6150F
:10189000F80191838083892BA1F41F928BE08F93B1
:1018A0008FEB91E09F938F938BEC91E09F938F93BD
:1018B0000E94F1170F900F900F900F900F900F90C4
:1018C000FFCF219602C0C0E0D0E0CE15DF05BCF20C
:1018D000C501DF91CF911F910F91FF90EF90DF90A5
:1018E000CF90BF90AF9008958F929F92AF92BF928A
:1018F000CF92DF92EF92FF920F931F93CF93DF93DC
:101900006C017B015A0100E010E03FC01F921F9262
:101910001F930F9381EF91E09F938F930E94F11794
:101920008AEF91E09F938F930E94F1178DB79EB736
:1019300008960FB6F8949EBF0FBE8DBFC0E0D0E0F2
:101940001FC00F2EF4E08F2EF2E09F2EF02DF40139
:1019500062817381F801EE0FFF1FEC0DFD1D0190F8
:10196000F081E02DEC0FFD1F808190E00E94B51703
:10197000F4016281738180E290E00E94B5172196A4
:10198000CE15DF05F0F20F5F1F4F0A151B0508F497
:10199000BDCF1F921F921F921F9281EF91E09F93E4
:1019A0008F930E94F1170F900F900F900F900F9050
:1019B0000F90DF91CF911F910F91FF90EF90DF90EB
:1019C000CF90BF90AF909F908F900895CF93DF936B
:1019D000C0E0D0E013C0DE01AA0FBB1FA80FB91FE3
:1019E0000D90BC91A02DAE0FBF1F2C93319602C05D
:1019F000E0E0F0E0E617F70774F32196C417D50787
:101A0000BCF3DF91CF9108952F923F924F925F9256
:101A10006F927F928F929F92AF92BF92CF92DF92FE
:101A2000EF92FF920F931F93CF93DF93CDB7DEB763
:101A3000A3970FB6F894DEBF0FBECDBF1C017A8707
:101A400069873A015A2CB901330F880B990B0E9410
:101A50003B104B015C0189859A8599230CF4019612
:101A60009C01359527953E832D83B901330F880B53
:101A7000990B0E943B106D877E878F87988B9B0107
:101A8000AC01C501B4010E94910F698B7A8B8B8BDD
:101A90009C8BB801110F880B990B0E943B10698336
:101AA0007A838B839C83662777276619770912F4DC
:101AB0006F5F7F4F75956795072E000C880B990B0C
:101AC0000E943B104B015C019B01AC0169817A8152
:101AD0008B819C810E94910F6D8B7E8B8F8B988F59
:101AE000B701FF0C880B990B0E943B102D853E859A
:101AF0004F8558890E94910F69837A838B839C83D9
:101B0000B601DD0C880B990B0E943B10A5019401D6
:101B10000E94910F6B017C0129893A894B895C896C
:101B200069817A818B819C810E941A0F698F7A8FDB
:101B30008B8F9C8F2D893E894F89588DC701B601A7
:101B40000E941A0F6D8F7E8F8F8F98A319821A8231
:101B50001B821C8289859A859BA38AA359A24D80EA
:101B60005E80C9C0298D3A8D4B8D5C8D69817A81EB
:101B70008B819C810E942F119B01AC0169897A891C
:101B80008B899C890E941B0F6D837E838F8398872E
:101B90002D8D3E8D4F8D58A169817A818B819C81DD
:101BA0000E942F119B01AC016D897E898F89988DD0
:101BB0000E941B0F6B017C012D813E814F81588556
:101BC0006D857E858F8598890E942F114B015C0160
:101BD00020E030E0A9010E94870F88236CF42D815A
:101BE0003E814F81588550586D857E858F859889B7
:101BF0000E942F114B015C012D853E854F85588930
:101C0000C501B4010E942A1118160CF481C0830189
:101C1000772014F40F5F1F4F15950795B801012E1B
:101C2000000C880B990B0E943B104B015C019B013F
:101C3000AC01C701B6010E942F1169877A878B8793
:101C40009C8720E030E0A9010E94870F88235CF484
:101C5000A70196015058C501B4010E942F11698750
:101C60007A878B879C87A501940169857A858B8506
:101C70009C850E942A1118160CF44AC0A7019601EF
:101C80005058C501B4010E942F110E940310600F2B
:101C9000711F660F771FF101E60FF71F0081118199
:101CA0002AA13BA1B901330F880B990B0E943B106D
:101CB0002D813E814F8158850E942F1120E030E018
:101CC00040E05FE30E942F110E940310640D751D18
:101CD000F801E60FF71F39A130832DEC3CEC4CECFA
:101CE0005DE369817A818B819C810E941B0F6983EE
:101CF0007A838B839C8320E030E040E85FE3698156
:101D00007A818B819C810E94870F88230CF42ACFD3
:101D1000A3960FB6F894DEBF0FBECDBFDF91CF9173
:101D20001F910F91FF90EF90DF90CF90BF90AF90F9
:101D30009F908F907F906F905F904F903F902F90EB
:101D400008957F928F929F92AF92BF92CF92DF922F
:101D5000EF92FF920F931F93CF93DF935A017C2C46
:101D600088249924861A970A1AF44FEF841A940A41
:101D700095948794640146C0F601E01BF10BEE9F39
:101D8000E001EF9FD00DD00D1124DA01A21BB30B9F
:101D9000AA9FF001AB9FF00DF00D1124EC0FFD1F79
:101DA000EE9CD001EF9CB00DB00D1124AE17BF0713
:101DB000C4F0EE27FF27EA19FB090AF43196F595DE
:101DC000E795D601AE1BBF0BFD01EE0FFF1FE80F1D
:101DD000F91FA081B181FA01E819F909EA0FFB1F87
:101DE00070824F5F5F4F01C0A401FB0177230CF4A9
:101DF0003196F595E7954E175F070CF4BDCFBFEF11
:101E0000CB1ADB0AA501BB2014F44F5F5F4F559539
:101E10004795C416D50644F3DF91CF911F910F91DA
:101E2000FF90EF90DF90CF90BF90AF909F908F90FA
:101E30007F9008955058BB27AA270E94320F0C9418
:101E4000DC100E94A31038F00E94AA1020F039F490
:101E50009F3F19F426F40C94A0100EF4E095E7FBD4
:101E60000C949A10E92F0E94011158F3BA176207D7
:101E700073078407950720F079F4A6F50C942311D5
:101E80000EF4E0950B2EBA2FA02D0B01B901900195
:101E90000C01CA01A0011124FF27591B99F0593FD9
:101EA00050F4503E68F11A16F040A22F232F342F21
:101EB0004427585FF3CF469537952795A795F0406F
:101EC0005395C9F77EF41F16BA0B620B730B840B84
:101ED000BAF09150A1F0FF0FBB1F661F771F881F3C
:101EE000C2F70EC0BA0F621F731F841F48F4879594
:101EF00077956795B795F7959E3F08F0B0CF939586
:101F0000880F08F09927EE0F9795879508950E94FE
:101F1000761008F481E008950E94B310E3950C94C4
:101F2000ED100E94A50F0C94DC100E94AA1058F02E
:101F30000E94A31040F029F45F3F29F00C949A10FE
:101F400051110C9424110C94A0100E94011168F3FB
:101F50009923B1F3552391F3951B550BBB27AA2762
:101F600062177307840738F09F5F5F4F220F331F9C
:101F7000441FAA1FA9F335D00E2E3AF0E0E832D064
:101F800091505040E695001CCAF72BD0FE2F29D067
:101F9000660F771F881FBB1F261737074807AB0739
:101FA000B0E809F0BB0B802DBF01FF2793585F4FAE
:101FB0003AF09E3F510578F00C949A100C9424113D
:101FC0005F3FE4F3983ED4F3869577956795B79590
:101FD000F7959F5FC9F7880F911D9695879597F99B
:101FE0000895E1E0660F771F881FBB1F6217730714
:101FF0008407BA0720F0621B730B840BBA0BEE1F29
:1020000088F7E09508950E940A106894B1110C9425
:10201000241108950E94091188F09F5798F0B92F54
:102020009927B751B0F0E1F0660F771F881F991F0D
:102030001AF0BA95C9F714C0B13091F00E9423117B
:10204000B1E008950C942311672F782F8827B85F8B
:1020500039F0B93FCCF3869577956795B395D9F765
:102060003EF490958095709561957F4F8F4F9F4F6F
:102070000895E89409C097FB3EF49095809570957B
:1020800061957F4F8F4F9F4F9923A9F0F92F96E9C4
:10209000BB279395F695879577956795B795F11139
:1020A000F8CFFAF4BB0F11F460FF1BC06F5F7F4FD6
:1020B0008F4F9F4F16C0882311F096E911C07723E8
:1020C00021F09EE8872F762F05C0662371F096E8F1
:1020D000862F70E060E02AF09A95660F771F881FC0
:1020E000DAF7880F9695879597F90895990F000864
:1020F000550FAA0BE0E8FEEF16161706E807F907DA
:10210000C0F012161306E407F50798F0621B730B74
:10211000840B950B39F40A2661F0232B242B252BF5
:1021200021F408950A2609F4A140A6958FEF811D98
:10213000811D089597F99F6780E870E060E0089539
:102140009FEF80EC089500240A94161617061806CF
:102150000906089500240A941216130614060506AB
:1021600008950C94A0100E940911D8F3E894E0E0BF
:10217000BB279F57F0F02AED3FE049EC06C0EE0F79
:10218000BB0F661F771F881F28F0B23A62077307DC
:10219000840728F0B25A620B730B840BE3959A956F
:1021A00072F7803830F49A95BB0F661F771F881F2F
:1021B000D2F790480C94AB11092E0394000C11F443
:1021C000882352F0BB0F40F4BF2B11F460FF04C012
:1021D0006F5F7F4F8F4F9F4F0895EF93E0FF07C0D2
:1021E000A2EA2AED3FE049EC5FEB0E94320F0E9429
:1021F000DC100F90039401FC9058E8E6F0E00C949A
:10220000B71157FD9058440F551F59F05F3F71F0BB
:102210004795880F97FB991F61F09F3F79F087954D
:102220000895121613061406551FF2CF4695F1DFD6
:1022300008C0161617061806991FF1CF8695710566
:10224000610508940895E894BB2766277727CB019A
:1022500097F908950E94761008F48FEF08950E9470
:1022600042110C94DC100E94A31038F00E94AA10B6
:1022700020F0952311F00C949A100C94A0101124C6
:102280000C9424110E94011170F3959FC1F3950FD6
:1022900050E0551F629FF001729FBB27F00DB11DEA
:1022A000639FAA27F00DB11DAA1F649F6627B00D7A
:1022B000A11D661F829F2227B00DA11D621F739F63
:1022C000B00DA11D621F839FA00D611D221F749F71
:1022D0003327A00D611D231F849F600D211D822FB8
:1022E000762F6A2F11249F5750409AF0F1F08823DF
:1022F0004AF0EE0FFF1FBB1F661F771F881F91500C
:102300005040A9F79E3F510580F00C949A100C9410
:1023100024115F3FE4F3983ED4F386957795679553
:10232000B795F795E7959F5FC1F7FE2B880F911D35
:102330009695879597F908959F930E94B3100F90F3
:1023400007FCEE5F0C94ED100E947610880B990B41
:1023500008959F3F31F0915020F4879577956795C8
:10236000B795880F911D9695879597F908959F9336
:102370008F937F936F93FF93EF939B01AC010E9428
:102380002F11EF91FF910E94CB112F913F914F910F
:102390005F910C942F11DF93CF931F930F93FF92B4
:1023A000EF92DF927B018C01689406C0DA2EEF0178
:1023B0000E944211FE01E894A59125913591459125
:1023C0005591A6F3EF010E94320FFE019701A8017B
:1023D000DA9469F7DF90EF90FF900F911F91CF9102
:1023E000DF910895A0E1B0E0E8EFF1E10C946F1502
:1023F0007C011B016A01FC0117821682838181FF27
:1024000044C39E012F5F3F4F3901F7019381F101D2
:1024100093FD859193FF81911F01882309F431C3B6
:10242000853239F493FD859193FF81911F018532A7
:1024300039F4B70190E00E94B51756016501E5CF68
:1024400010E0512C912CFFE1F915D8F08B3279F086
:1024500038F4803279F08332A1F4F92DF0612EC086
:102460008D3261F0803369F4292D21602DC0392D22
:102470003260932E892D8460982E2AC0E92DE86061
:1024800015C097FC2DC020ED280F2A3088F496FE49
:1024900006C03AE0139F200D1124122F19C08AE0C4
:1024A000589E200D1124522EE92DE0629E2E10C060
:1024B0008E3231F496FCE5C2F92DF0649F2E08C0EF
:1024C0008C3621F4292D2068922E02C0883641F4E2
:1024D000F10193FD859193FF81911F018111B3CF8C
:1024E0009BEB980F933020F4992D9061805E07C08C
:1024F0009BE9980F933008F066C1992D9F7E96FF57
:1025000016E09F73992E853619F49064992E08C0B1
:10251000863621F4392F3068932E02C011111150E4
:1025200097FE07C01C3350F444244394410E27E027
:102530000BC0183038F027E017E005C027E09CE317
:10254000492E02C0212F412C560184E0A80EB11C57
:10255000F6016081718182819381042DA3010E9423
:10256000C7166C01F981FC87F0FF02C0F3FF06C0BB
:1025700091FC06C092FE06C000E205C00DE203C059
:102580000BE201C000E08C858C7019F001115AC279
:102590009BC297FE10C04C0CFC85F4FF04C08A81DE
:1025A000813309F44A94141474F528E0241578F55D
:1025B00088E0482E2CC096FC2AC0812F90E08C1514
:1025C0009D059CF03CEFC3163FEFD30674F0892DB8
:1025D0008068982E0AC0E2E0F0E0EC0FFD1FE10FEA
:1025E000F11D8081803319F411501111F4CF97FE41
:1025F0000EC044244394410E812F90E0C816D906A2
:102600002CF41C1904C04424439401C010E097FE2C
:1026100006C01C141D0434F4C601019605C085E0F3
:1026200090E002C081E090E001110196112331F0A9
:10263000212F30E02F5F3F4F820F931F252D30E079
:102640008217930714F4581A01C0512C892D8970F0
:1026500049F4552039F0B70180E290E00E94B517A7
:102660005A94F7CF002329F0B701802F90E00E9401
:10267000B51793FC09C0552039F0B70180E390E00D
:102680000E94B5175A94F7CF97FE4CC04601D7FE6B
:1026900002C0812C912CC60188199909F301E80F19
:1026A000F91FFE87ED87960124193109388B2F8792
:1026B000012F10E01195019511093FEF8316930644
:1026C00029F4B7018EE290E00E94B517C814D9042E
:1026D0004CF08F8598898815990524F4ED85FE8541
:1026E000818101C080E3F1E08F1A91082D853E853C
:1026F0002F5F3F4F3E872D87801691062CF0B70144
:1027000090E00E94B517D9CFC814D90441F49A813A
:10271000963320F4953319F43C8534FF81E3B701F7
:1027200090E04EC08A81813319F09C859F7E9C8702
:10273000B70190E00E94B517111105C094FC18C0B4
:1027400085E690E017C0B7018EE290E00E94B517D1
:102750001E5F82E001E0080FF301E80FF11D8081A8
:10276000B70190E00E94B517802F0113F3CFE6CF99
:1027700085E490E0B7010E94B517D7FC06C0C114EC
:10278000D10441F4EC85E4FF05C0D194C194D10893
:102790008DE201C08BE2B70190E00E94B51780E3A3
:1027A0002AE0C216D1042CF08F5FFAE0CF1AD108CC
:1027B000F7CFB70190E00E94B517B701C601C096E8
:1027C0000E94B51754C1833631F0833779F08335D1
:1027D00009F056C020C0560132E0A30EB11CF6012C
:1027E0008081898301E010E0630112C05601F2E0AC
:1027F000AF0EB11CF601C080D18096FE03C0612FE0
:1028000070E002C06FEF7FEFC6010E94AA178C0133
:10281000F92DFF7714C0560122E0A20EB11CF6017B
:10282000C080D18096FE03C0612F70E002C06FEFC0
:102830007FEFC6010E949F178C01F92DF0689F2E33
:10284000F3FD1AC0852D90E008171907A8F4B70109
:1028500080E290E00E94B5175A94F4CFF60197FCFD
:10286000859197FE81916F01B70190E00E94B517A5
:1028700051105A94015011090115110579F7F7C04B
:10288000843611F0893661F5560197FE09C024E0BF
:10289000A20EB11CF60160817181828193810AC010
:1028A000F2E0AF0EB11CF60160817181072E000CC1
:1028B000880B990BF92DFF769F2E97FF09C09095F5
:1028C0008095709561957F4F8F4F9F4FF0689F2E39
:1028D0002AE030E0A3010E940718C82EC6183FC0A6
:1028E000092D853721F40F7E2AE030E01DC0097FD5
:1028F0008F3691F018F4883559F0C3C0803719F03D
:10290000883711F0BEC0006104FF09C0046007C031
:1029100094FE08C0066006C028E030E005C020E153
:1029200030E002C020E132E0560107FF09C084E038
:10293000A80EB11CF601608171818281938108C06B
:10294000F2E0AF0EB11CF6016081718180E090E091
:10295000A3010E940718C82EC6180F77902E96FE66
:102960000BC0092D0E7FC11650F494FE0AC092FCD4
:1029700008C0092D0E7E05C0DC2C092D03C0DC2CFF
:1029800001C0D12E04FF0DC0FE01EC0DF11D8081B0
:10299000803311F4097E09C002FF06C0D394D3949A
:1029A00004C0802F867809F0D39403FD11C000FF86
:1029B00006C01C2DD51480F4150D1D190DC0D5149D
:1029C00058F4B70180E290E00E94B517D394F7CF96
:1029D000D51410F45D1801C0512C04FF10C0B701CC
:1029E00080E390E00E94B51702FF17C001FD03C00D
:1029F00088E790E002C088E590E0B7010CC0802F26
:102A0000867859F001FF02C08BE201C080E207FD29
:102A10008DE2B70190E00E94B517C11638F4B701F6
:102A200080E390E00E94B5171150F7CFCA94F301EC
:102A3000EC0DF11D8081B70190E00E94B517C11027
:102A4000F5CF15C0F4E0F51560F584E0581A93FE53
:102A50001FC0011127C02C8523FF2AC006E810E003
:102A6000392D3071932EF8018491811124C05520A5
:102A700009F4E4CCB70180E290E00E94B5175A94C3
:102A8000F6CFF7018681978126C08FEF9FEF23C095
:102A9000B70180E290E00E94B5175A945110F8CF28
:102AA000D8CF512CB701802F90E00E94B517D3CF1B
:102AB0000AE810E0D5CF91108052B70190E00E9453
:102AC000B5170F5F1F4FCFCF23E0251510F483E01C
:102AD000BDCF512CC0CF6096E2E10C948B152F92A4
:102AE0003F924F925F926F927F928F929F92AF929E
:102AF000BF92CF92DF92EF92FF920F931F93CF93EB
:102B0000DF93CDB7DEB7CA1BDB0B0FB6F894DEBF81
:102B10000FBECDBF09942A88398848885F846E84A7
:102B20007D848C849B84AA84B984C884DF80EE80F1
:102B3000FD800C811B81AA81B981CE0FD11D0FB6FA
:102B4000F894DEBF0FBECDBFED0108950F931F9324
:102B5000CF93DF938230910510F482E090E0E09112
:102B60000202F091030220E030E0A0E0B0E03097F4
:102B700019F1408151810281138148175907C8F02A
:102B80008417950769F4109731F012960C931297F9
:102B900013961C9327C0009302021093030222C0D5
:102BA0002115310519F04217530718F49A01BD0198
:102BB000EF01DF01F801DBCF21153105F9F0281B0A
:102BC000390B2430310580F48A819B8161157105B0
:102BD00021F0FB019383828304C0909303028093CE
:102BE0000202FE01329644C0FE01E20FF31F819300
:102BF000919322503109398328833AC020910002F1
:102C000030910102232B41F4209102013091030104
:102C100030930102209300022091000130910101C4
:102C20002115310541F42DB73EB740910401509173
:102C30000501241B350BE0910002F0910102E2171F
:102C4000F307A0F42E1B3F0B2817390778F0AC01CF
:102C50004E5F5F4F2417350748F04E0F5F1F5093AC
:102C60000102409300028193919302C0E0E0F0E002
:102C7000CF01DF91CF911F910F910895CF93DF93F3
:102C8000009709F481C0FC01329713821282A0914F
:102C90000202B0910302109781F420813181820FEA
:102CA000931F20910002309101022817390751F536
:102CB000F0930102E093000267C0ED0120E030E0F4
:102CC000CE17DF0740F44A815B819E014115510513
:102CD000F1F0EA01F5CFD383C28340815181840FA3
:102CE000951FC817D90759F488819981840F951FBA
:102CF0000296918380838A819B81938382832115AD
:102D0000310529F4F0930302E09302023DC0E9018A
:102D1000FB83EA8349915991C40FD51FEC17FD0736
:102D200061F480819181840F951F0296E901998356
:102D30008883828193819B838A83E0E0F0E012960E
:102D40008D919C911397009719F0FD01DC01F7CF4D
:102D50008D919C9111979D012E5F3F4F820F931F84
:102D600020910002309101022817390769F4309749
:102D700029F4109203021092020202C013821282FE
:102D8000B0930102A0930002DF91CF910895283003
:102D900008F027E03327DA01990F311D87FD916094
:102DA00000966105710539F432602E5F3D9330E382
:102DB0002A95E1F708959F3F30F08038710561054D
:102DC00009F03C5F3C5F3D93913008F08068911DB5
:102DD000DF93CF931F930F93FF92EF92192F987F5A
:102DE0009695E92F96959695E90FFF27E851FF4FA5
:102DF00099273327EE24FF24A701E70105900894C3
:102E0000079428F4360FE71EF81E491F511D660F60
:102E1000771F881F991F0694A1F70590079428F43F
:102E2000E70EF81E491F561FC11D770F881F991FF7
:102E3000661F0694A1F70590079428F4F80E491F21
:102E4000561FC71FD11D880F991F661F771F069435
:102E5000A1F70590079420F4490F561FC71FD81FEC
:102E6000990F661F771F881F0694A9F78491109504
:102E7000177041F0D695C79557954795F794E79405
:102E80001A95C1F7EEE8F0E0689415901591359128
:102E90006591959105907FE27395E118F10A430BD6
:102EA000560BC90BD009C0F7E10CF11E431F561F8A
:102EB000C91FD01D7EF4703311F48A95E6CFE894D3
:102EC000015030F0080F0AF40027021708F4202FF1
:102ED0002395022F7A3328F079E37D932A95E9F739
:102EE00010C07D932A9589F6069497956795379536
:102EF00017951794E118F10A430B560BC90BD0092B
:102F000098F023957E9173957A3308F070E37C9363
:102F10002013B8F77E9170617D9330F0839571E353
:102F20007D9370E32A95E1F71124EF90FF900F91C4
:102F30001F91CF91DF91992787FD90950895FC010E
:102F40000590615070400110D8F7809590958E0FD4
:102F50009F1F0895FC016150704001900110D8F747
:102F6000809590958E0F9F1F08950F931F93CF9379
:102F7000DF93FB01238121FD03C08FEF9FEF2CC066
:102F800022FF16C04681578124813581421753079D
:102F900044F4A081B1819D012F5F3F4F3183208395
:102FA0008C93268137812F5F3F4F3783268314C050
:102FB0008B01EC01FB010084F185E02D0995892B43
:102FC000E1F6D80116968D919C9117970196179668
:102FD0009C938E931697CE01DF91CF911F910F9105
:102FE0000895A0E0B0E0E7EFF7E10C947F15AE01A3
:102FF0004B5F5F4FFA0161917191AF0180910602C1
:10300000909107020E94F211E2E00C949B15FA01E4
:10301000AA27283051F1203181F1E8946F936E7F17
:103020006E5F7F4F8F4F9F4FAF4FB1E03ED0B4E008
:103030003CD0670F781F891F9A1FA11D680F791F49
:103040008A1F911DA11D6A0F711D811D911DA11D5A
:1030500020D009F468943F912AE0269F112430196A
:10306000305D3193DEF6CF010895462F4770405D05
:103070004193B3E00FD0C9F7F6CF462F4F70405DB4
:103080004A3318F0495D31FD4052419302D0A9F70F
:10309000EACFB4E0A6959795879577956795BA9509
:1030A000C9F700976105710508959B01AC010A2ECF
:1030B00006945795479537952795BA95C9F7620FA6
:0E30C000731F841F951FA01D0895F894FFCF65
:1030CE0000000A0220000000803F0000803F000048
:1030DE00803F0000803FCDCC1C410000000000006E
:1030EE00000075A942400000000000000000DB0F48
:1030FE004940000000000000000000000002000037
:10310E000000F20B000000007061732064652074F3
:10311E00656D70732074726F702070657469740AB7
:10312E000050726F626CC3A86D65206E6F6D627217
:10313E0065206465207061732074726F70206772F1
:10314E00616E643A20256C642C2025660A006D653C
:10315E0074686F64655F524B5F6164617074617413
:10316E006976655F70656E64756C65004552524593
:10317E0055523A2063616C63756C2025730A0067A3
:10318E0072617068697175652E630045727265753E
:10319E0072206427616C6C6F636174696F6E203A84
:1031AE002025732C206C69676E65203A2025640AF1
:1031BE00001B5B25643B256448001B5B324B000003
:00000001FF
